{
  "_format": "hh-sol-artifact-1",
  "contractName": "GigPro",
  "sourceName": "contracts/GigPro.sol",
  "abi": [
    {
      "inputs": [
        {
          "internalType": "address",
          "name": "_userAddress",
          "type": "address"
        },
        {
          "internalType": "uint256",
          "name": "amount",
          "type": "uint256"
        }
      ],
      "name": "addFreeLancer",
      "outputs": [],
      "stateMutability": "nonpayable",
      "type": "function"
    },
    {
      "inputs": [
        {
          "internalType": "address",
          "name": "",
          "type": "address"
        }
      ],
      "name": "freelancerIndex",
      "outputs": [
        {
          "internalType": "uint256",
          "name": "",
          "type": "uint256"
        }
      ],
      "stateMutability": "view",
      "type": "function"
    },
    {
      "inputs": [
        {
          "internalType": "uint256",
          "name": "",
          "type": "uint256"
        }
      ],
      "name": "freelancers",
      "outputs": [
        {
          "internalType": "address",
          "name": "userAddress",
          "type": "address"
        },
        {
          "internalType": "uint256",
          "name": "payAmount",
          "type": "uint256"
        },
        {
          "internalType": "address",
          "name": "owner",
          "type": "address"
        }
      ],
      "stateMutability": "view",
      "type": "function"
    },
    {
      "inputs": [
        {
          "internalType": "address",
          "name": "_owner",
          "type": "address"
        }
      ],
      "name": "getFreeLancersByOwner",
      "outputs": [
        {
          "components": [
            {
              "internalType": "address",
              "name": "userAddress",
              "type": "address"
            },
            {
              "internalType": "uint256",
              "name": "payAmount",
              "type": "uint256"
            },
            {
              "internalType": "address",
              "name": "owner",
              "type": "address"
            }
          ],
          "internalType": "struct GigPro.FreeLancer[]",
          "name": "",
          "type": "tuple[]"
        }
      ],
      "stateMutability": "view",
      "type": "function"
    },
    {
      "inputs": [
        {
          "internalType": "address",
          "name": "_userAddress",
          "type": "address"
        },
        {
          "internalType": "address",
          "name": "_owner",
          "type": "address"
        }
      ],
      "name": "getSingleFreeLancer",
      "outputs": [
        {
          "components": [
            {
              "internalType": "address",
              "name": "userAddress",
              "type": "address"
            },
            {
              "internalType": "uint256",
              "name": "payAmount",
              "type": "uint256"
            },
            {
              "internalType": "address",
              "name": "owner",
              "type": "address"
            }
          ],
          "internalType": "struct GigPro.FreeLancer",
          "name": "",
          "type": "tuple"
        }
      ],
      "stateMutability": "view",
      "type": "function"
    },
    {
      "inputs": [
        {
          "internalType": "address",
          "name": "_userAddress",
          "type": "address"
        },
        {
          "internalType": "address",
          "name": "_owner",
          "type": "address"
        }
      ],
      "name": "removeFreeLancer",
      "outputs": [],
      "stateMutability": "nonpayable",
      "type": "function"
    },
    {
      "inputs": [
        {
          "internalType": "address",
          "name": "_userAddress",
          "type": "address"
        },
        {
          "internalType": "uint256",
          "name": "newAmount",
          "type": "uint256"
        },
        {
          "internalType": "address",
          "name": "_newAddress",
          "type": "address"
        }
      ],
      "name": "updateFreeLancer",
      "outputs": [],
      "stateMutability": "nonpayable",
      "type": "function"
    }
  ],
  "bytecode": "0x608060405234801561001057600080fd5b5061178e806100206000396000f3fe608060405234801561001057600080fd5b506004361061007d5760003560e01c80638cc4972b1161005b5780638cc4972b14610100578063abc2fdd11461011c578063d243f0ce14610138578063fc6d74c5146101685761007d565b80630b9364d814610082578063681ee47e146100b45780637adc5e1a146100e4575b600080fd5b61009c600480360381019061009791906111e8565b610198565b6040516100ab939291906113d3565b60405180910390f35b6100ce60048036038101906100c991906110f8565b610212565b6040516100db919061140a565b60405180910390f35b6100fe60048036038101906100f9919061115d565b610590565b005b61011a60048036038101906101159190611199565b6106fb565b005b61013660048036038101906101319190611121565b61097a565b005b610152600480360381019061014d91906110f8565b610e32565b60405161015f91906114c7565b60405180910390f35b610182600480360381019061017d9190611121565b610e4a565b60405161018f91906114ac565b60405180910390f35b600081815481106101a857600080fd5b90600052602060002090600302016000915090508060000160009054906101000a900473ffffffffffffffffffffffffffffffffffffffff16908060010154908060020160009054906101000a900473ffffffffffffffffffffffffffffffffffffffff16905083565b60606000805b6000805490508110156102e6578373ffffffffffffffffffffffffffffffffffffffff1660008281548110610276577f4e487b7100000000000000000000000000000000000000000000000000000000600052603260045260246000fd5b906000526020600020906003020160020160009054906101000a900473ffffffffffffffffffffffffffffffffffffffff1673ffffffffffffffffffffffffffffffffffffffff1614156102d35781806102cf9061159c565b9250505b80806102de9061159c565b915050610218565b5060008167ffffffffffffffff811115610329577f4e487b7100000000000000000000000000000000000000000000000000000000600052604160045260246000fd5b60405190808252806020026020018201604052801561036257816020015b61034f611081565b8152602001906001900390816103475790505b5090506000805b600080549050811015610584578573ffffffffffffffffffffffffffffffffffffffff16600082815481106103c7577f4e487b7100000000000000000000000000000000000000000000000000000000600052603260045260246000fd5b906000526020600020906003020160020160009054906101000a900473ffffffffffffffffffffffffffffffffffffffff1673ffffffffffffffffffffffffffffffffffffffff161415610571576000818154811061044f577f4e487b7100000000000000000000000000000000000000000000000000000000600052603260045260246000fd5b90600052602060002090600302016040518060600160405290816000820160009054906101000a900473ffffffffffffffffffffffffffffffffffffffff1673ffffffffffffffffffffffffffffffffffffffff1673ffffffffffffffffffffffffffffffffffffffff168152602001600182015481526020016002820160009054906101000a900473ffffffffffffffffffffffffffffffffffffffff1673ffffffffffffffffffffffffffffffffffffffff1673ffffffffffffffffffffffffffffffffffffffff1681525050838381518110610557577f4e487b7100000000000000000000000000000000000000000000000000000000600052603260045260246000fd5b6020026020010181905250818061056d9061159c565b9250505b808061057c9061159c565b915050610369565b50819350505050919050565b600060405180606001604052808473ffffffffffffffffffffffffffffffffffffffff1681526020018381526020013373ffffffffffffffffffffffffffffffffffffffff168152509050600081908060018154018082558091505060019003906000526020600020906003020160009091909190915060008201518160000160006101000a81548173ffffffffffffffffffffffffffffffffffffffff021916908373ffffffffffffffffffffffffffffffffffffffff1602179055506020820151816001015560408201518160020160006101000a81548173ffffffffffffffffffffffffffffffffffffffff021916908373ffffffffffffffffffffffffffffffffffffffff160217905550505060016000805490506106b3919061152c565b600160008573ffffffffffffffffffffffffffffffffffffffff1673ffffffffffffffffffffffffffffffffffffffff16815260200190815260200160002081905550505050565b6000600160008573ffffffffffffffffffffffffffffffffffffffff1673ffffffffffffffffffffffffffffffffffffffff168152602001908152602001600020541161077d576040517f08c379a00000000000000000000000000000000000000000000000000000000081526004016107749061142c565b60405180910390fd5b6000600160008573ffffffffffffffffffffffffffffffffffffffff1673ffffffffffffffffffffffffffffffffffffffff1681526020019081526020016000205490503373ffffffffffffffffffffffffffffffffffffffff1660008281548110610812577f4e487b7100000000000000000000000000000000000000000000000000000000600052603260045260246000fd5b906000526020600020906003020160020160009054906101000a900473ffffffffffffffffffffffffffffffffffffffff1673ffffffffffffffffffffffffffffffffffffffff161461089a576040517f08c379a00000000000000000000000000000000000000000000000000000000081526004016108919061148c565b60405180910390fd5b82600082815481106108d5577f4e487b7100000000000000000000000000000000000000000000000000000000600052603260045260246000fd5b9060005260206000209060030201600101819055508160008281548110610925577f4e487b7100000000000000000000000000000000000000000000000000000000600052603260045260246000fd5b906000526020600020906003020160000160006101000a81548173ffffffffffffffffffffffffffffffffffffffff021916908373ffffffffffffffffffffffffffffffffffffffff16021790555050505050565b6000600160008473ffffffffffffffffffffffffffffffffffffffff1673ffffffffffffffffffffffffffffffffffffffff16815260200190815260200160002054116109fc576040517f08c379a00000000000000000000000000000000000000000000000000000000081526004016109f39061142c565b60405180910390fd5b6000600160008473ffffffffffffffffffffffffffffffffffffffff1673ffffffffffffffffffffffffffffffffffffffff1681526020019081526020016000205490508173ffffffffffffffffffffffffffffffffffffffff1660008281548110610a91577f4e487b7100000000000000000000000000000000000000000000000000000000600052603260045260246000fd5b906000526020600020906003020160020160009054906101000a900473ffffffffffffffffffffffffffffffffffffffff1673ffffffffffffffffffffffffffffffffffffffff1614610b19576040517f08c379a0000000000000000000000000000000000000000000000000000000008152600401610b109061144c565b60405180910390fd5b60006001600080549050610b2d919061152c565b81548110610b64577f4e487b7100000000000000000000000000000000000000000000000000000000600052603260045260246000fd5b906000526020600020906003020160008281548110610bac577f4e487b7100000000000000000000000000000000000000000000000000000000600052603260045260246000fd5b90600052602060002090600302016000820160009054906101000a900473ffffffffffffffffffffffffffffffffffffffff168160000160006101000a81548173ffffffffffffffffffffffffffffffffffffffff021916908373ffffffffffffffffffffffffffffffffffffffff160217905550600182015481600101556002820160009054906101000a900473ffffffffffffffffffffffffffffffffffffffff168160020160006101000a81548173ffffffffffffffffffffffffffffffffffffffff021916908373ffffffffffffffffffffffffffffffffffffffff1602179055509050508060016000808481548110610cd3577f4e487b7100000000000000000000000000000000000000000000000000000000600052603260045260246000fd5b906000526020600020906003020160000160009054906101000a900473ffffffffffffffffffffffffffffffffffffffff1673ffffffffffffffffffffffffffffffffffffffff1673ffffffffffffffffffffffffffffffffffffffff168152602001908152602001600020819055506000805480610d7b577f4e487b7100000000000000000000000000000000000000000000000000000000600052603160045260246000fd5b6001900381819060005260206000209060030201600080820160006101000a81549073ffffffffffffffffffffffffffffffffffffffff021916905560018201600090556002820160006101000a81549073ffffffffffffffffffffffffffffffffffffffff021916905550509055600160008473ffffffffffffffffffffffffffffffffffffffff1673ffffffffffffffffffffffffffffffffffffffff16815260200190815260200160002060009055505050565b60016020528060005260406000206000915090505481565b610e52611081565b6000600160008573ffffffffffffffffffffffffffffffffffffffff1673ffffffffffffffffffffffffffffffffffffffff1681526020019081526020016000205490508273ffffffffffffffffffffffffffffffffffffffff1660008281548110610ee7577f4e487b7100000000000000000000000000000000000000000000000000000000600052603260045260246000fd5b906000526020600020906003020160020160009054906101000a900473ffffffffffffffffffffffffffffffffffffffff1673ffffffffffffffffffffffffffffffffffffffff1614610f6f576040517f08c379a0000000000000000000000000000000000000000000000000000000008152600401610f669061146c565b60405180910390fd5b60008181548110610fa9577f4e487b7100000000000000000000000000000000000000000000000000000000600052603260045260246000fd5b90600052602060002090600302016040518060600160405290816000820160009054906101000a900473ffffffffffffffffffffffffffffffffffffffff1673ffffffffffffffffffffffffffffffffffffffff1673ffffffffffffffffffffffffffffffffffffffff168152602001600182015481526020016002820160009054906101000a900473ffffffffffffffffffffffffffffffffffffffff1673ffffffffffffffffffffffffffffffffffffffff1673ffffffffffffffffffffffffffffffffffffffff168152505091505092915050565b6040518060600160405280600073ffffffffffffffffffffffffffffffffffffffff16815260200160008152602001600073ffffffffffffffffffffffffffffffffffffffff1681525090565b6000813590506110dd8161172a565b92915050565b6000813590506110f281611741565b92915050565b60006020828403121561110a57600080fd5b6000611118848285016110ce565b91505092915050565b6000806040838503121561113457600080fd5b6000611142858286016110ce565b9250506020611153858286016110ce565b9150509250929050565b6000806040838503121561117057600080fd5b600061117e858286016110ce565b925050602061118f858286016110e3565b9150509250929050565b6000806000606084860312156111ae57600080fd5b60006111bc868287016110ce565b93505060206111cd868287016110e3565b92505060406111de868287016110ce565b9150509250925092565b6000602082840312156111fa57600080fd5b6000611208848285016110e3565b91505092915050565b600061121d8383611331565b60608301905092915050565b61123281611560565b82525050565b61124181611560565b82525050565b6000611252826114f2565b61125c818561150a565b9350611267836114e2565b8060005b8381101561129857815161127f8882611211565b975061128a836114fd565b92505060018101905061126b565b5085935050505092915050565b60006112b260148361151b565b91506112bd82611614565b602082019050919050565b60006112d560288361151b565b91506112e08261163d565b604082019050919050565b60006112f860228361151b565b91506113038261168c565b604082019050919050565b600061131b60288361151b565b9150611326826116db565b604082019050919050565b6060820160008201516113476000850182611229565b50602082015161135a60208501826113b5565b50604082015161136d6040850182611229565b50505050565b6060820160008201516113896000850182611229565b50602082015161139c60208501826113b5565b5060408201516113af6040850182611229565b50505050565b6113be81611592565b82525050565b6113cd81611592565b82525050565b60006060820190506113e86000830186611238565b6113f560208301856113c4565b6114026040830184611238565b949350505050565b600060208201905081810360008301526114248184611247565b905092915050565b60006020820190508181036000830152611445816112a5565b9050919050565b60006020820190508181036000830152611465816112c8565b9050919050565b60006020820190508181036000830152611485816112eb565b9050919050565b600060208201905081810360008301526114a58161130e565b9050919050565b60006060820190506114c16000830184611373565b92915050565b60006020820190506114dc60008301846113c4565b92915050565b6000819050602082019050919050565b600081519050919050565b6000602082019050919050565b600082825260208201905092915050565b600082825260208201905092915050565b600061153782611592565b915061154283611592565b925082821015611555576115546115e5565b5b828203905092915050565b600061156b82611572565b9050919050565b600073ffffffffffffffffffffffffffffffffffffffff82169050919050565b6000819050919050565b60006115a782611592565b91507fffffffffffffffffffffffffffffffffffffffffffffffffffffffffffffffff8214156115da576115d96115e5565b5b600182019050919050565b7f4e487b7100000000000000000000000000000000000000000000000000000000600052601160045260246000fd5b7f467265656c616e636572206e6f7420666f756e64000000000000000000000000600082015250565b7f4e6f7420617574686f72697a656420746f2072656d6f7665207468697320667260008201527f65656c616e636572000000000000000000000000000000000000000000000000602082015250565b7f4e6f7420617574686f72697a656420666f72207468697320667265656c616e6360008201527f6572000000000000000000000000000000000000000000000000000000000000602082015250565b7f4e6f7420617574686f72697a656420746f20757064617465207468697320667260008201527f65656c616e636572000000000000000000000000000000000000000000000000602082015250565b61173381611560565b811461173e57600080fd5b50565b61174a81611592565b811461175557600080fd5b5056fea264697066735822122090d870153e5cb5cf7ced9a37683dc5fbf20bb7511a67ede2da32d706416406fb64736f6c63430008020033",
  "linkReferences": {},
  "deployedLinkReferences": {}
}